:020000040800F2
:10000000E8070020A90100089D2900086D230008C9
:10001000992900083D0A0008493100080000000045
:10002000000000000000000000000000292A000875
:10003000ED0A000800000000252A00085D2A0008DB
:10004000C3010008C3010008C3010008C301000880
:10005000C3010008C3010008C3010008C301000870
:10006000C3010008C3010008C3010008C301000860
:10007000C3010008C3010008C3010008C301000850
:10008000C3010008C3010008C3010008000000000C
:10009000000000000000000000000000C301000894
:1000A000C3010008C3010008C3010008C301000820
:1000B000C3010008C3010008192B0008C301000890
:1000C000C3010008C3010008C3010008C301000800
:1000D000C301000829310008C30100080000000026
:1000E000C3010008C3010008C301000800000000AC
:1000F000000000000000000000000000C301000834
:1001000000000000C3010008C3010008C30100088B
:1001100000000000000000000000000000000000DF
:10012000C3010008C3010008410A0008C301000818
:10013000C3010008000000000000000000000000F3
:10014000000000000000000000000000C3010008E3
:10015000C3010008C3010008510A00083931000832
:10016000C3010008C30100080000000000000000F7
:10017000000000000000000000000000000000007F
:1001800000000000C30100080000000000000000A3
:10019000C3010008DFF80CD000F0D0FB0048004796
:1001A000B5450008E8070020064880470648004794
:1001B000FEE7FEE7FEE7FEE7FEE7FEE7FEE7FEE717
:1001C000FEE7FEE7052B0008950100082DE9F05F2A
:1001D0000546002092469B468846064681464024B6
:1001E0001BE0284641464746224600F089FA53461E
:1001F0005A46C01A914110D311461846224600F0C3
:1002000070FA2D1A67EB01084F46224601200021A3
:1002100000F067FA17EB00094E41201EA4F101041B
:10022000DFDC484631462A464346BDE8F09F2DE9CB
:10023000F0410024061B254671F1000605DA012471
:100240000027D0EB070067EB0101161E73F10006D3
:1002500005DA0027D2EB0702012567EB0303FFF75E
:10026000B5FF86460E4617469C46AC4204D0002594
:10027000D0EB050E65EB010624B10020D2EB0007A0
:1002800060EB030C704631463A466346BDE8F081A8
:10029000D2B201E000F8012B491EFBD270470022C8
:1002A000F6E710B513460A4604461946FFF7F0FF75
:1002B000204610BD30B504460020034600E05B1C1C
:1002C000934203D2E05CCD5C401BF8D030BD70B5EA
:1002D000064605F0B1F9046805460A2200213046B9
:1002E00000F030FA2C6070BD2DE9FE4F804681EAA7
:1002F0000300C00F0C46009021F0004123F00045A0
:10030000B8EB0200A94105D24046214690461C4662
:100310000B46024623F00040104347D0270DC7F399
:100320000A00C3F30A510290401A019040286BDA88
:10033000C3F3130040F4801B0098924620B10023C1
:10034000D2EB030A63EB0B0B01985946C0F1400254
:10035000504600F0C6F906460D4650465946019AE9
:1003600000F0DEF910EB08006141002487EA115229
:1003700084EAE7731A4340D0009A62B3019A012AD3
:100380004FEA075215DC001B61EB02014FF00042FF
:1003900002EA0752CDE90042001C41F580113246C5
:1003A0002B4600F04DFA03B0BDE8F08F40462146E1
:1003B000F9E7001B61EB0201001C41F580130018F6
:1003C0005B412018A2F5001747EB030140EAD57006
:1003D000B6196D4111E06D084FEA360645EAC07561
:1003E0004FEA0752001B61EB0201001C41F580112E
:1003F00049084FEA30000019514132462B4603B0FC
:10040000BDE8F04F00F00DBA009801224000002333
:10041000D0EB020263EBE073009821464FEAE074F0
:10042000B8EB000061EB0401E9E783F000435BE710
:1004300081F0004158E72DE9FE4F81EA030404F002
:10044000004421F0004100944FF0000B23F00043E2
:1004500050EA01045ED052EA03045BD0C3F30A54AD
:10046000C1F30A552C44A4F2F3340194A0FB0254C6
:10047000C1F3130141F48011C3F3130343F4801358
:1004800001FB024400FB034E840A970A44EA8154AC
:1004900047EA8357A4FB076802958D0A05FB078589
:1004A0004FEA932C04FB0C542705029D4FEA065893
:1004B00047EA1637B5EB08056EEB070C870E920E70
:1004C00047EA811742EA8312A7FB0201B6EB0B0150
:1004D00064EB00042B0D43EA0C335E1844EB1C5014
:1004E000DA465146E7FB0201C5F313044FEA0B332A
:1004F00043EA14534FEA0432019C43EA0603A4F191
:100500000C040294009CCDE900B400F099F903B00A
:10051000BDE8F08F00200146F9E72DE9F04D81EAB2
:10052000030404F0004B21F0004514464FF0000A8C
:1005300023F0004150EA050220D054EA01021DD008
:10054000C5F30A570246C5F31303C1F31300C1F301
:100550000A5640F4801543F48013A7EB0608101BDD
:10056000D64608F2FD3873EB050002D308F1010806
:1005700001E092185B41B8F1000F03DA0020014658
:10058000BDE8F08D00204FF48011064684460EE051
:10059000171B73EB050705D3121B63EB050306431B
:1005A0004CEA010C49084FEA300092185B4150EACE
:1005B0000107EDD152EA030012D082EA040083EA77
:1005C0000501084305D0101BAB4106D201220023D0
:1005D00006E000224FF0004302E06FF001025310EA
:1005E0001AEB06004CEB085110EB0A0041EB0B0133
:1005F000BDE8F04D00F015B90EB5C10F80EAE0700E
:100600000844CA07002140F233438DE80E000A4631
:100610000B4600F015F903B000BD70B5C1F30A52E6
:1006200001F000450024C1F3130140F2FF3341F40F
:1006300080119A4201DA002070BD40F233439A42A1
:10064000A2F2334203DC524200F05AF800E090403C
:100650002C43F1D0404270BD00F0004230F0004029
:100660000AD0C10D01F56071C0F3160042EA0151D4
:10067000C20840071143704700200146704701F04F
:10068000004330B421F0004150EA010206D00A0DC7
:10069000A2F56072C1F31301002A02DC30BC002015
:1006A0007047440F44EAC104C100E01830BC00EBBD
:1006B000C25000F07FB830B50B4601460020202222
:1006C000012409E021FA02F59D4205D303FA02F55F
:1006D000491B04FA02F52844151EA2F10102F1DCBF
:1006E00030BD202A04DB203A00FA02F100207047D6
:1006F0009140C2F1200320FA03F319439040704760
:10070000202A04DB203A21FA02F00021704721FA66
:1007100002F3D040C2F120029140084319467047CD
:10072000202A06DBCB17203A41FA02F043EAE073B5
:1007300006E041FA02F3D040C2F1200291400843A2
:10074000194670472DE9F04791460F46804604460A
:10075000002614F8015B2DB100F002F90068405D3D
:10076000C007F6D12B2D02D02D2D18D0641E4A467D
:100770003946204600F0F8F827B13968A14201D186
:10078000C7F8008071054FF002040BD540420028E5
:1007900003DD04F051FF0460A007BDE8F08746F4D4
:1007A0008066E4E70028F8DA04F046FF04606FF0A2
:1007B0000040F2E70029A8BF7047401C490008BF6D
:1007C00020F00100704710B4B0FA80FC00FA0CF081
:1007D00050EA010404BF10BC704749B1CCF12004B9
:1007E00021FA04F411FA0CF118BF01212143084346
:1007F000A3EB0C01CB1D4FEA00614FEA102042BF72
:10080000002010BC704700EBC35010440029A4BF67
:1008100010BC7047401C490008BF20F0010010BC0C
:10082000704710B5141E73F1000408DA401C41F142
:10083000000192185B411A4301D120F0010010BD64
:100840002DE9F04D92469B4611B1B1FA81F202E0DA
:10085000B0FA80F220329046FFF743FF04460F467D
:1008600040EA0A0041EA0B0153465A46084313D0B6
:10087000114653EA010019D0C8F140025046FFF773
:100880003FFF05460E46504659464246FFF729FFB0
:10089000084305D0012004E020463946BDE8F08D2C
:1008A0000020054346EAE0762C4337430A98630567
:1008B000E40AA0EB08000022FD0A44EA47540A308B
:1008C00002D500200146E9E7010510196941DDE97B
:1008D000084500196941BDE8F04DA2E7C1F30A528D
:1008E000C1F3130140F2FF3341F480119A4202DA5E
:1008F00000200146704740F233439A42A2F233424D
:1009000002DC5242FFF7FCBEFFF7EBBE30B5041E1F
:1009100071F1000404DB4FF00044404264EB01013C
:10092000141E73F1000405DB1C464FF000435242D5
:1009300063EB0403994208BF904230BD064C074D5B
:1009400006E0E06840F0010394E80700984710349F
:10095000AC42F6D3FFF722FC7877000898770008BE
:1009600000487047C46A00082DE9F05F82460078AD
:10097000002715468B460AF10104B946302801D0FC
:100980009DB113E014F8010B0127782803D05828F3
:1009900001D045B10AE00DB1102D07D10027102577
:1009A00014F8010B02E0082500E00A250026B046F5
:1009B0000EE005FB080005FB06F1012701EB1046E0
:1009C0001FFA80F8B6F5803F00D3B94614F8010B42
:1009D000294600F025F80028EBDABBF1000F05D01E
:1009E0000FB1641E00E05446CBF80040B9F1000F8F
:1009F00006D004F021FE02210160C81EBDE8F09F70
:100A000048EA0640FAE70EB540F233410291002170
:100A1000CDE900110A460B46FFF712FF03B000BDF7
:100A20003A2800D2303820F02002412A01D3A2F126
:100A30003700884201D34FF0FF307047FEE70000D7
:100A400080B540F2B010C2F2000000F0A9F880BDFD
:100A500080B540F21020C2F2000000F0A1F880BD85
:100A6000D0F800C06FF00F024AF6AB2352FA8CF2B6
:100A7000CAF6AA230146A2FB0330000905A31B5CAA
:100A800040F2FF302CEA00005F2A88BF0430C1E941
:100A90001603704700061016000610168269816A58
:100AA000B2F5005F06D06AB9022912D0012914D02C
:100AB000D1B90EE0032917D8DFE801F0020B020FCD
:100AC0000120704703293CBF012070471CBF002054
:100AD0007047C06AC0F300607047C06AA0F1C07080
:100AE000B0FA80F04009704700207047704700005E
:100AF000EFF3108072B600BFFEE7000070B5866DA0
:100B0000044600F069FA94F83510022925D105460B
:100B10002068216C026822F016020260426922F00D
:100B20008002426109B9A16C19B1016821F0080184
:100B30000160016821F00101016000BF20680068C8
:100B4000C0070ED000F048FA401B0628F6D320203C
:100B50006065032084F835000CE08020606501208A
:100B600008E0E06D3F2101FA00F0B060012084F858
:100B700035000020002184F8341070BD90F8351045
:100B8000022909D1052180F835100068016821F09B
:100B900001010160002070478021416501207047FC
:100BA000F0B581B004460020009040F20400C2F28B
:100BB00000000268D4E9166048F2B51337680821CE
:100BC000C1F64E3381403942A2FB03250CD0226886
:100BD00013685B0708D5136823F004031360B16042
:100BE000616D41F00101616501218140394208D008
:100BF00022685269120604D5B160616D41F00201AC
:100C0000616504218140394208D022681268920748
:100C100004D5B160616D41F004016165102181402E
:100C2000394215D020680268120711D5B1600268F8
:100C30000168520306D4C90506D4016821F00801F1
:100C4000016001E0080342D4216C09B120468847C5
:100C5000E16D202000FA01F23A4244D02068036896
:100C6000DB0640D5B26094F835300268052B1ED102
:100C700022F016020260426922F080024261226C78
:100C80000AB9A26C1AB1026822F0080202603F2081
:100C90008840B060012084F83500216D00200029D3
:100CA00084F8340040D02046884701B0F0BD016888
:100CB000520310D4C90512D4016821F0100101605B
:100CC000012084F83500002084F8340007E0A16C8E
:100CD0000029BBD1BCE7080301D4616C00E0E16BE3
:100CE00009B120468847606DF0B1606DC00717D02C
:100CF000052084F835002068A90A026822F0010264
:100D0000026000BF009A01328A42009202D8026853
:100D1000D207F7D1012084F83500002084F8340090
:100D2000E16C09B12046884701B0F0BD2DE9F041E2
:100D3000044600F051F9C4B10546022084F835009C
:100D40000020216884F83400086820F00100086061
:100D500026683068C0070BD000F03EF9401B05281C
:100D6000F6D903212022032042E00120BDE8F081D2
:100D7000306848F23F01CFF21001251D00EA010C56
:100D80002ECDD4E9050E41EA0C0111431943294344
:100D9000D4E90778084340EA0E01606A3943042821
:100DA00041EA080103D1D4E90B231143194331600F
:100DB0007169042821F0070141EA00050CD1D4E94A
:100DC0000A1045EA010538B12046FFF767FE18B161
:100DD0000121402201200BE020467561FFF740FE13
:100DE000E16D3F2202FA01F1816000220121002021
:100DF000626584F83510BDE8F0810000B0B50446A6
:100E000000F0EAF8054640F28800C2F200000078DF
:100E1000611C18BF044400BF00F0DEF8401BA04274
:100E2000FAD3B0BD2DE9F04F83B000F13E4202F19C
:100E3000FF724FEAB22241F200070192C4F20207A8
:100E400007224FF0010E00254FF0000A4FF0000876
:100E5000B84208BF042200920AE000BF08F101086E
:100E60000AF1040AB8F1100F05F1020500F0A480A0
:100E70000C680EFA08FB14EA0B09EFD04C6804F07A
:100E8000030CACF1010EBEF1010F11D803228768EB
:100E900002FA05F6CA68B743AA403A43826042683C
:100EA000C4F3001722EA0B0207FA08F73A4342603C
:100EB000BCF1030F1CD0C26803238E6803FA05F748
:100EC000BA4306FA05F73A43BCF1020FC2600FD1EC
:100ED0006FF0030202EA580202440AF01C060F23D4
:100EE000176A03FA06F40B69A743B3403B43136246
:100EF000026803234F68AB409A4307F00303AB40FB
:100F00001A4317F4403F4FF0010E0260A6D00022B2
:100F100043F644030292C4F202031A6843F6004403
:100F200042F480421A601A68C4F2010402F480425A
:100F30000292029A28F003024FF6084B2244CFF6A1
:100F4000FF7B52F80B300AF00C070F26BE4023EA55
:100F5000060C019B009E042B38BF1E4606FA07F7BD
:100F600047EA0C0342F80B30A2684B6842EA0907D3
:100F700043F60C4CDE0258BF22EA0907A760C4F210
:100F8000010CDCF800209E0242EA090758BF22EA61
:100F90000907CCF8007062689E0342EA090758BF4F
:100FA00022EA090767602268DB0342EA090358BFA7
:100FB00022EA0903236051E703B0BDE8F08F000087
:100FC0000069084018BF012070470000002A08BFD0
:100FD000090481617047000040F2E030C2F2000075
:100FE0000068704740F2880040F2E031C2F2000031
:100FF000C2F2000100780A681044086070470000DF
:1010000080B543F60040C4F20200016841F400716B
:101010000160016841F480610160016841F4807100
:101020000160032000F060F80F2000F005F800F0E8
:101030002BF8002080BD0000B0B540F28802C2F25B
:10104000000240F204011278C2F200014FF47A73F8
:101050000968B3FBF2F20446B1FBF2F1084600F076
:10106000F9FA0F2C4FF001050CD858B94FF0FF30AA
:1010700021460022002500F027F840F28C00C2F241
:10108000000004602846B0BD82B0002043F6400155
:101090000190C4F202014A6842F480424A604A6800
:1010A00002F480420192019A0090086840F080505A
:1010B0000860086800F080500090009802B0704707
:1010C00080B502F043F880BD70B514460D46064663
:1010D00002F04CF82946224601F062FC01463046F7
:1010E00002F04CF870BD000080B502F059F880BDE8
:1010F0002DE9F041002800F08B8043F60808C4F287
:1011000002080446D8F8F8030D4600F007008842AC
:1011100007D288F8F853D8F8F80300F00700A8427F
:1011200076D12068810717D5410705D5D8F800107A
:1011300041F4E051C8F80010010705D5D8F80010B7
:1011400041F46041C8F80010D8F80010A26821F0FE
:10115000F0011143C8F80010C0073FD1D8F8F803D8
:1011600000F00700A84207D988F8F853D8F8F80328
:1011700000F00700A8424BD12068410707D5D8F8F6
:101180000010E26821F4E0511143C8F80010000794
:1011900008D5D8F80000216920F4604040EAC10079
:1011A000C8F8000000F07EF8D8F8001046F6CE220D
:1011B000C1F30311C0F60002515C40F2040220FAB0
:1011C00001F140F28C00C2F200000068C2F200029D
:1011D0001160FFF731FF0020BDE8F0816068811EDB
:1011E000022907D258F8081C89015CBF0120BDE81C
:1011F000F08110E0012807D158F8081C89035CBF72
:101200000120BDE8F08106E058F8081C890702D4E7
:101210000120BDE8F081D8F8001021F00301084357
:10122000C8F80000FFF7D8FE064641F2883700BF35
:10123000D8F80000616800F00C00B0EB810F8DD091
:10124000FFF7CAFE801BB842F2D90320BDE8F08147
:1012500040F20400C2F200000068704780B5FFF75A
:10126000F7FF43F60801C4F20201096846F6DE22E0
:10127000C1F38221C0F60002515CC84080BD00006D
:1012800080B5FFF7E5FF43F60801C4F202010968E3
:1012900046F6DE22C1F34231C0F60002515CC8407E
:1012A00080BD000010B543F60404C4F20204606877
:1012B00000F00C0008280AD0042819BF42F20040B0
:1012C000C0F2F40047F64000C0F27D1010BD206867
:1012D00021682368490247F64001C0F27D1100F001
:1012E0003F02C3F388105CBF42F20041C0F2F40138
:1012F000A1FB00010023FEF769FF21680222C1F370
:10130000014102EB4101B0FBF1F010BD2DE9F041CC
:1013100082B0002800F0A2800446007843F6000660
:10132000C007C4F2020643D0B06800F00C000428E5
:1013300005D1306880033BD56068C8BB8EE0B068DB
:1013400000F00C00082802D170684002F1D46568F2
:10135000B5F5A02F0AD0B5F5803F0BD0306820F44A
:1013600080303060306820F4802006E0306840F43F
:1013700080203060306840F480303060FFF72CFE11
:10138000002D054611D000BF3068800310D4FFF750
:1013900023FE401B6428F7D922E100BFFFF71CFEA3
:1013A000401B64284FF0030055D830688003F5D403
:1013B000207880071AD5B06810F00C0F09D0B068FB
:1013C00000F00C00082840F08A807068400200F1AC
:1013D00086803068800702D5E06801283ED13068F9
:1013E000216920F0F80040EAC10030602078000751
:1013F00038D4207840074CD4A5695DB3B06800F0BC
:101400000C00082840F09E80012D27D07068E1690B
:1014100000F480028A4221D1216A00F03F028A4210
:101420001CD147F6C071626A0140B1EB821F15D131
:10143000A26A0023CFF6FF7303EBC23200F44031FF
:101440006FF30F02914209D1E16A00F07060B0EBD6
:10145000016F03D1002002B0BDE8F081012002B08D
:10146000BDE8F0816069002840F20000C4F2472026
:1014700057D00121C0F8801EFFF7AEFD054600BF22
:10148000706F8007B5D4FFF7A7FD401B0228F7D97E
:10149000A6E0306C10F080580AD100200190306C2A
:1014A00040F080503064306C00F080500190019822
:1014B00047F20007C4F200073868C00524D4386832
:1014C00040F480703860FFF787FD05463868C00536
:1014D0001AD4FFF781FD401B0228F7D980E0E068AD
:1014E000002851D00020C4F2472001210160FFF7FD
:1014F00073FD0546306880073FF571AFFFF76CFD5F
:10150000401B0228F6D96BE0A568052D50D0012DAF
:1015100052D0306F20F001003067306F20F00400AF
:101520004DE00021C0F8801EFFF756FD054600BFC4
:10153000706F80077FF55DAFFFF74EFD401B0228FF
:10154000F6D94DE00027C4F2472700203866FFF7A0
:1015500043FD022D05460BD13068800158D5FFF7B9
:101560003BFD401B02284FF00300F5D973E700BF95
:10157000306880017FF56EAFFFF72EFD401B02281B
:101580004FF00300F4D966E70020C4F247200021A1
:101590000160FFF721FD0546306880077FF526AF23
:1015A000FFF71AFD401B02284FF00300F4D952E761
:1015B000306F40F004003067306F40F0010030675A
:1015C000FFF70AFD002D054641F2883714D000BF11
:1015D000306F800713D4FFF7FFFC401BB842F7D9E8
:1015E000032002B0BDE8F081FFF7F6FC401BB842D3
:1015F0004FF003003FF62FAF306F8007F4D4B8F1FF
:10160000000F7FF4F9AE306C20F080503064F3E6C8
:1016100004F11C052FCD08430021CFF6FF7140EAED
:10162000821001EBC3316FF30F0140EA05600843FC
:10163000706001203866FFF7CFFC044630688001F7
:101640003FF508AFFFF7C8FC001B02284FF003006E
:10165000F4D900E780B501F0E9F980BD70470000DA
:101660007047000010B590F83C20012A4FF00202AC
:1016700040D0012380F83C3080F83D200268D2F849
:1016800004E0D2F808C00C682EF07003234340F643
:10169000FF34C4F20004A24253600FDCB2F1804F69
:1016A0001DD040F20043C4F200039A4217D040F626
:1016B0000003C4F200039A4211D015E040F6004343
:1016C000C4F200039A420AD044F20003C4F20103B8
:1016D0009A4204D00023C4F201039A4204D149681B
:1016E0002CF08003194391600121002280F83D1005
:1016F00080F83C20104610BD002804BF0120704730
:1017000010B5044690F83D0028B9002084F83C004C
:10171000204600F01FF8022084F83D002068211DBB
:1017200001F002FA012084F8460084F83E0084F8B3
:101730003F0084F8400084F8410084F8420084F8B7
:10174000430084F8440084F8450084F83D000020FC
:1017500010BD000080B582B0006840F60001C4F200
:101760000001884201D002B080BD0020019043F604
:101770004000C4F202000168002241F0040101604F
:101780000068002100F00400019001981E20FFF77E
:101790009BFC1E20FFF794FC02B080BD90F83D102A
:1017A00001291CBF01207047022180F83D1000680C
:1017B00040F6FF32C168C4F20002904241F00101DC
:1017C000C1600FDCB0F1804F1DD040F20041C4F287
:1017D0000001884217D040F60001C4F2000188429F
:1017E00011D017E040F60041C4F2000188420AD04F
:1017F00044F20001C4F20101884204D00021C4F285
:101800000101884206D1816801F00701062904BF61
:1018100000207047016841F001010160002070471D
:1018200010B5044690F83C0001284FF0020008BFB4
:1018300010BD012284F83C2084F83D0020684FF65A
:10184000777382689A4382600A684F2A0FDC1F2AE6
:1018500022DD202A23D0302A21D0402A4DD14B68C6
:10186000CA68194601F0ACFA206840213BE06F2AB3
:1018700017DDB2F5005F20D0B2F5805F2AD0702A64
:101880003BD1D1E9012CCB68614601F0CDF920684C
:10189000816841F077011AE00AB1102A2DD1114672
:1018A00021E0502A18D0602A27D14B68CA6819460F
:1018B00001F098FA2068602115E0D1E9012CCB688D
:1018C000614601F0B1F92068816841F4804181608E
:1018D00000200BE0002009E04B68CA68194601F0BF
:1018E0006FFA2068502101F0ABF90020012184F843
:1018F0003D10002184F83C1010BD0120F6E70000E7
:101900007047000010B5044600680169890744BFAC
:10191000C1685FEA817138D420680169490744BF12
:10192000C1685FEA41713CD420680169090744BF7E
:10193000C1685FEA017141D420680169C90644BFEA
:10194000C1685FEAC16145D420680169C9071CBF4D
:10195000C1685FEAC1714AD120680169090644BFC4
:10196000C1685FEA016149D420680169490644BF42
:10197000C1685FEA416148D420680169890644BFB3
:10198000C1685FEA816147D410BD6FF00201016157
:10199000012121778069800745D02046FFF7B0FFFD
:1019A00047E06FF00401016102212177806910F4A2
:1019B000407F41D02046FFF7A3FF43E06FF00801CE
:1019C000016104212177C06980073ED02046FFF7DE
:1019D00097FF40E06FF01001016108212177C06995
:1019E00010F4407F3AD02046FFF78AFF3CE06FF0CA
:1019F00001010161204600F067F9ADE76FF0800159
:101A000001612046FFF72AFEAEE76FF04001016159
:101A1000204600F071F9AFE76FF020010161204628
:101A2000FFF71EFE10BD204600F04EF8204600F0E5
:101A3000DFF8002020776FE7204600F045F82046C9
:101A400000F0D6F8002020776EE7204600F03CF842
:101A5000204600F0CDF8002020776DE7204600F00A
:101A600033F8204600F0C4F8002020776CE700002F
:101A700080B586B000680021B0F1804F0591CDE9B6
:101A800003110291019101D006B080BD43F63000F0
:101A90000091C4F20200026842F001020260006894
:101AA00000F00100009000980F2001900220CDE985
:101AB00002010120059000200491C4F2020001A956
:101AC000FFF7B0F906B080BD70470000B0B504461E
:101AD00090F83C00012804BF0220B0BD0D464FEA3B
:101AE000B2010120032984F83C0037D8DFE801F077
:101AF000020A12222068294601F0AAF8206850F84C
:101B0000181F0EE02068294601F0D2F8206850F82E
:101B1000181F16E02068294601F0FCF8206850F8EC
:101B20001C1F41F008010160016821F004010160FF
:101B300029690FE02068294601F01EF9206850F855
:101B40001C1F41F400610160016821F480610160A3
:101B5000296909020268114301600020002184F80C
:101B60003C10B0BD002804BF0120704710B50446EA
:101B700090F83D0028B9002084F83C00204600F091
:101B80001FF8022084F83D002068211D00F0CCFFE2
:101B9000012084F8460084F83E0084F83F0084F871
:101BA000400084F8410084F8420084F8430084F83F
:101BB000440084F8450084F83D00002010BD00007A
:101BC00081B00068B0F1804F01D001B070470020B3
:101BD000009043F64000C4F20200016841F00101A8
:101BE0000160006800F001000090009801B07047AB
:101BF00070470000B0B5044641B1082909D0042956
:101C000014BF04F1410004F13F0004E004F13E0080
:101C100001E004F14000007801281CBF0120B0BDA4
:101C2000022041B1082909D0042914BF84F84100D9
:101C300084F83F0004E084F83E0001E084F84000AE
:101C4000206844250122C4F2010500F0DBFF206872
:101C5000A5F14401884203D1296841F4004129607B
:101C600040F6FF31C4F2000188420FDCB0F1804F32
:101C70001DD040F20041C4F20001884217D040F666
:101C80000001C4F20001884211D017E040F6004183
:101C9000C4F2000188420AD044F20001C4F20101FA
:101CA000884204D00021C4F20101884206D1816833
:101CB00001F00701062904BF0020B0BD016841F012
:101CC000010101600020B0BD40F2B821C2F2000164
:101CD00000680968884218BF704740F2DC30C2F2E1
:101CE0000000016849F697134A1CC1F699139942FE
:101CF000C8BF0022026070477047000070470000B4
:101D000070470000B0B582B0036804461868D9680F
:101D10005A6900F02F05202D01F0200505D125B1CD
:101D2000204601F0ADF802B0B0BD5FEA007C1EBFF6
:101D300002F0010E01F4907212EB0E0248D1226BF8
:101D40000840C1063BD5012A39D10020019018680E
:101D500001905868019001985869400640D4A08DC0
:101D6000E18DE28D002A1CBF401A5FEA004101D1DB
:101D700002B0B0BD216851E8031F226821F49071C0
:101D800042E80313002BF5D1216851E8051F2268B2
:101D900021F0010142E80513002BF5D1202184F840
:101DA0003E100021216300BF216851E8031F226813
:101DB00021F0100142E80313002BF5D152E0010697
:101DC00056D44006D4D5204601F04EF802B0B0BD3E
:101DD000C20718BF11F480724FD1420753D459E0A3
:101DE000A06B016849688AB2002AC1D0A38D9A42CB
:101DF000BED2E185C069B0F5807F30D0206850E860
:101E0000030F216820F4807041E80302002AF5D115
:101E1000206850E8050F216820F0010041E8050224
:101E2000002AF5D1206850E8050F216820F0400015
:101E300041E80502002AF5D1202084F83E00002068
:101E4000206300BF206850E8030F216820F01000D5
:101E500041E80302002AF5D1A06BFEF74FFEA08DEA
:101E6000E18D401A81B22046FFF748FF02B0B0BDB5
:101E7000204601F0F1F802B0B0BD226C42F0010240
:101E80002264420706D5BEF1000F03D0226C42F057
:101E900002022264820706D5BEF1000F03D0226C35
:101EA00042F004022264BCF1000F06D55EEA05028E
:101EB00003D0226C42F008022264226C002A3FF414
:101EC00057AF0840800602D5204600F0D9FF2068B1
:101ED0004069216C00F0400001F00801401827D053
:101EE000204600F099FF2068406940061BD500BFDE
:101EF000206850E8050F216820F0400041E8050205
:101F0000002AF5D1A06B70B142F60961C0F600015C
:101F10000165FEF733FE00283FF42AAFA06B016D88
:101F2000884702B0B0BD2046FFF7EAFE02B0B0BD60
:101F30002046FFF7E5FE0020206402B0B0BD00009F
:101F4000002804BF0120704710B5044690F83D00FA
:101F500028B9002084F83C00204600F021F8242015
:101F600084F83D002068C16821F40051C16020461A
:101F700000F0E8FF2068016921F4904101614169A6
:101F800021F02A014161C16841F40051C160002083
:101F90002021206484F83D1084F83E1010BD00001C
:101FA0002DE9F04387B00446216841F20042C4F2B3
:101FB000010200209142CDE90500CDE90300029025
:101FC0006BD041F20000C4F20100814240F09680E3
:101FD000002643F630000196C4F20200416946F241
:101FE000404841F0100141614169C4F2020801F02A
:101FF0001001019101990196016841F00101016010
:10200000006802A900F00100019001984FF4C0603F
:1020100002900220CDE903060320059007200690D8
:102020000020C4F20200FEF7FDFE40F2B015C2F23D
:1020300000054FF000674FF480692846C5E9008726
:10204000C5E90266C5E90496C5E90666C5E90866FC
:10205000FEF76CFE002818BFFEF74AFDA563AC63CF
:1020600040F2102508F17800C2F200054021C5E9D0
:10207000000705F1080080E842022846C5E9056628
:10208000C5E907666E62FEF751FE002818BFFEF72D
:102090002FFD6563AC63252428E043F630010190F1
:1020A000C4F202014A6942F020024A614A6902F020
:1020B00020020192019A01900A6842F001020A602E
:1020C000096801F00101019101994FF4C051029199
:1020D0000221CDE90310032005900820069000207E
:1020E000C4F2020002A9FEF79DFE4724204600210B
:1020F0000022FEF7E9FF2046FEF7E2FF07B0BDE849
:10210000F083000010B590F83E30202B0BD1002951
:102110004FF0010418BF002A01D1204610BD90F8ED
:102120003C30012B01D1022010BD0123002480F896
:102130003C30046300F074FF204610BDB0B5044687
:1021400040F20030C2F2000084421DD040F29815E7
:1021500040F20030C2F20005C2F20000294601221E
:10216000FFF7D0FF40F24430C2F2000084423AD080
:1021700040F2443040F29811C2F20000C2F2000175
:102180000122FFF7BFFFB0BD40F29110C2F2000084
:102190000178FF2952D040F29812C2F2000213785F
:1021A00040F29002C2F200025354013152FA81F31C
:1021B00013F8013C01700A2BC8D1C8B2104410F8C2
:1021C000020C0D28C2D140F29010C2F20000012191
:1021D000017040F60000C4F202004FF400510122E9
:1021E000FEF7F4FEB2E740F29110C2F2000001786F
:1021F000FF293BD02B7840F29002C2F200025354E8
:10220000013152FA81F313F8013C01700A2BAFD16E
:10221000C8B2104410F8020C0D28A9D140F2901059
:10222000C2F200000121017040F60000C4F2020079
:102230004FF400510122FEF7C9FE99E70021017019
:1022400040F29000C2F200004FF48071FEF727F8D0
:1022500040F2003040F21001C2F20000C2F2000170
:102260000C224FF6FF7300F019F86FE700210170A0
:1022700040F29000C2F200004FF48071FEF70FF8B8
:1022800040F2443040F21001C2F20000C2F20001FC
:102290000C224FF6FF7300F001F869E72DE9F043D7
:1022A00081B0044690F83D0020280BD10E4600294D
:1022B0004FF0010055D01746002A52D094F83C0048
:1022C000012803D1022001B0BDE8F083012084F889
:1022D0003C004FF0000921201D46C4F8409084F8CE
:1022E0003D00FEF779FEA784E784A1680746B1F5B3
:1022F000805F07D1206900281CBF30464E46B0469B
:10230000064601E04FF0000884F83C9007E000BF6B
:1023100016F8010B21684860E08C0138E084E08CFD
:1023200080B1204680213A462B4600F0BFFE80B99E
:10233000002EEDD138F8020B21686FF35F20486062
:102340000026E9E7204640213A462B4600F0AEFE43
:1023500018B1032001B0BDE8F083202084F83D00CF
:10236000002001B0BDE8F08370470000FEE70000E8
:1023700010B540F20044C4F202042046802100223D
:10238000FEF724FE204640210122FEF71FFE2046D4
:1023900080210122FEF71AFE10BD0000F0B581B0C9
:1023A00040F20045C4F2020504462846802101227D
:1023B000FEF70CFE00260827284640210122FEF7E2
:1023C00005FE28468021FEF7FBFD002818BF0120EE
:1023D00040EA4606284640210022FEF7F7FD013F6D
:1023E000EAD1204600F05AF8F0B201B0F0BD00008A
:1023F00070B540F2004504460826C4F2020500BF4D
:10240000E0B2C20928468021FEF7E0FD28464021BF
:102410000122FEF7DBFD284640210022FEF7D6FD13
:10242000013E4FEA4404EBD100F01CF870BD0000FF
:1024300010B540F20044C4F202042046802101227B
:10244000FEF7C4FD204640210122FEF7BFFD2046D5
:1024500080210022FEF7BAFD204640210022FEF72F
:10246000B5FD10BDB0B540F20044C4F202042046F0
:1024700080210122FEF7AAFD204640210122FEF71D
:10248000A5FD20468021FEF79BFD05462046402104
:102490000022FEF79BFD2846B0BD000010B50138B4
:1024A00040F20044B0FA80F0C4F20204420920462F
:1024B0008021FEF78BFD204640210122FEF786FD9C
:1024C000204640210022FEF781FD10BD70B582B08C
:1024D00014460D4606460DF10203682043210622EC
:1024E00000F062F808B102B070BDBDF80210BDF88E
:1024F000042009BA090C318011BABDF80620090C74
:10250000298011BA090C218002B070BD80B56B2002
:10251000802100F0B1F86420FEF770FC6B200021F0
:1025200000F0AAF8032000F06FF8002000F064F833
:10253000322000F08BF83820002100F09DF86A204E
:10254000002100F099F82320002100F095F83720B1
:10255000802100F091F8752000F00EF86B20012129
:1025600000F08AF86C20002100F086F8C82000F006
:102570006DF8002080BD000010B50446FFF758FF3D
:10258000D020FFF735FF2046FFF732FFFFF750FF5F
:10259000D120FFF72DFF0120FFF700FF0446FFF7D2
:1025A000E7FE204610BD0000F0B581B01C46154680
:1025B0000E460746FFF73CFF7F00F8B2FFF718FF13
:1025C0003046FFF715FFFFF733FF781CC0B2FFF767
:1025D0000FFF05E0C0B2FFF7E1FE04F8010B013D7B
:1025E000E9B201292846F5D009B10020F2E7FFF74A
:1025F000BFFE002001B0F0BD80B5C000C1B21C20FC
:1026000000F03AF880BD000080B5C000C1B21B20C8
:1026100000F032F880BD0000BB2801D901210FE095
:10262000612801D902210BE0292801D9032107E003
:10263000132801D9042103E00621092888BF0521B8
:1026400080B51A2000F018F880BD000010B50446CF
:102650004FF47A70B4F57A7F28BF0446042C98BFF3
:102660000424B0FBF4F00138C1B2192000F004F8E2
:102670006008FFF7D1FF10BDB0B50C460546FFF767
:10268000D7FED020FFF7B4FE2846FFF7B1FE204664
:10269000FFF7AEFEFFF76CFE0020B0BDF0B581B0D5
:1026A0001D4614460E460746FFF7C2FE7800C0B22C
:1026B000FFF79EFE3046FFF79BFE3CB1013D00BF99
:1026C00015F8010FFFF794FE013CF9D1FFF750FE1A
:1026D000002001B0F0BD000080B582B00020019064
:1026E00043F63000C4F202000168002241F4800188
:1026F00001600068002100F48000019001983A20F8
:10270000FEF7E2FC3A20FEF7DBFC46200021002227
:10271000FEF7DAFC4620FEF7D3FC02B080BD0000D5
:102720002DE9F04186B0002643F630000596CDE94C
:102730000366CDE901660096C4F20200016840F22A
:10274000004441F0800101600168C4F2020401F01C
:1027500080010091009900960168002241F001017A
:102760000160016801F00101009100990096016883
:1027700041F00201016000684CF2C00100F002006B
:10278000009000982046FEF721FC022001AD4FF09A
:10279000C0080390A4F580602946CDE90186FEF7C4
:1027A00041FB4FF440400190012720462946CDE9E6
:1027B00002760496FEF736FB1120CDE9020720468B
:1027C0002946CDF804800496FEF72CFB06B0BDE840
:1027D000F081000010B58AB040F270200024C2F2EF
:1027E00000004FF0804140F2E7330994CDE90744FF
:1027F000CDE90544CDE90344CDE90144532280E805
:102800001600C0E903348461FFF7ACF9002818BF53
:10281000FEF76EF940F27020C2F2000008A9CDE97F
:102820000844FEF71FFF002818BFFEF761F960207B
:1028300001900020CDE90200059040F27020C2F224
:10284000000001A90022FFF741F9002818BFFEF798
:102850004FF940F27020C2F2000001A90422FFF7F4
:1028600035F9002818BFFEF743F940F27020C2F294
:10287000000001A90822FFF729F9002818BFFEF778
:1028800037F940F27020C2F2000001A90C22FFF7D4
:102890001DF9002818BFFEF72BF940F27020C2F294
:1028A0000000FFF7E5F80AB010BD000080B586B063
:1028B00040F2B82040F600020021C2F20000C4F24B
:1028C0000002532340F2E73CCDE90411CDE90211A7
:1028D000CDE90011C0E90023C0E9021C016181615A
:1028E000FEF70AFF002818BFFEF702F94FF48050E8
:1028F000029040F2B820C2F2000002A9FEF790FF59
:10290000002818BFFEF7F4F80020CDE9000040F2DF
:10291000B820C2F200006946FEF7A4FE002818BFE6
:10292000FEF7E6F806B080BD80B540F2003041F217
:102930000001C2F20000C4F2010100234FF00C0CB0
:102940004FF4E13280E80E00C0E90333C0E905C36B
:10295000C361FFF7F5FA002818BFFEF7C9F880BD7C
:1029600080B540F2443041F20041C2F20000C4F2AE
:10297000010100234FF00C0C4FF4E13280E80E000F
:10298000C0E90333C0E905C3C361FFF7D9FA0028E2
:1029900018BFFEF7ADF880BDFEE70000FEE70000BF
:1029A00000F0070080F00703042B28BF04234FF03A
:1029B000FF3C03380CFA03F338BF002099438140F1
:1029C0000CFA00F022EA00000843704790ED053A47
:1029D00030EE601A90ED012A90ED000A31EE033AD4
:1029E00080ED053A23EE022A90ED073A90ED024A77
:1029F00021EE000A30EE020A31EE432A24EE022ACA
:102A000030EE020A80ED061A80ED071A70470000CA
:102A1000002180EC030AC0E90311C0E90511C0E9F7
:102A2000071170477047000070470000B0B50138CB
:102A30000024B4EB106F1CBF0120B0BD4EF2100596
:102A4000CEF2000568604FF0FF300F2100F096FBDA
:102A50000720AC6028602046B0BD000080B5FEF7BE
:102A6000C1FA80BD70B592B006AC20463021FDF7AA
:102A700016FC002543F640000595CDE90355CDE948
:102A800001550095C4F202000168022641F0805110
:102A90000160006800F080500090009847F200004C
:102AA0000095C4F20000016866F38F310160006890
:102AB00000F4404000900098012006904FF48030D0
:102AC00007904FF480000D9019200E90A820CDE9BA
:102AD0000F060420119020460C96FEF717FC78B9DB
:102AE0000F20CDE901064FF48050CDE9040501A87F
:102AF00002210395FEF7FCFA002804BF12B070BD56
:102B0000FDF7F6FF4EF68850CEF20000016841F462
:102B1000700101607047000080B540F2B820C2F239
:102B20000000FEF7EFFE80BD10B540F2FF7E0368A7
:102B3000C4F2000E40F2000C7045C4F2010C0ADD34
:102B400040F60002C4F2000290420DD060450BD066
:102B500040F6004204E0B0F1804F05D040F2004260
:102B6000C4F20002904203D14A6823F07003134379
:102B70004FF6FF72C4F20002904209DC704512DC8D
:102B8000B0F1804F26D040F20042C4F200021FE0B4
:102B900044F2FF32C4F2010290420FDC604519D0CA
:102BA00044F2000212E040F60002C4F20002904239
:102BB00010D040F60042C4F2000209E044F60002E0
:102BC000C4F20102904205D044F20042C4F2010274
:102BD000904203D1CA6823F44073134323F0800268
:102BE0004B69D1F800E08C681A4360450260C4620A
:102BF000C0F828E002D10969CCF830100121416108
:102C000010BD000080B501F01F014FF0010CD0F89D
:102C100020E00CFA01F32EEA03030362036A02FACE
:102C200001F11943016280BDD0F808C011432CF4B2
:102C30007F4C41EA032141EA0C01816070470000AA
:102C4000826822F07002114341F0070181607047F1
:102C5000B0B5026A002422F001020262026AD0F8D2
:102C600004E0D0F818C08B6822F00202C4F201041C
:102C7000A04242EA030205D1CB6822F00C0223F005
:102C800004031A430B68A04207D1D1E905452EF48D
:102C9000407E44EA0E0444EA050E2CF073052B43F3
:102CA000C0F804E08361496841630262B0BD00007E
:102CB000B0B5026A002422F010020262026AD0F863
:102CC00004E0D0F818C08B6822F02002C4F201049E
:102CD000A04242EA031207D1CB686FF0400522F010
:102CE000C00205EA03131A430B68A04207D1D1E9D9
:102CF00005452EF4406E4EEA840444EA850E2CF419
:102D0000E64545EA0323C0F804E08361496881632E
:102D10000262B0BDB0B5026A002422F48072026281
:102D2000026AD0F804E0D0F81CC08B6822F400726C
:102D3000C4F20104A04242EA032207D1CB6840F268
:102D4000FF451B0222F44062AB431A430B68A042CA
:102D500007D1D1E905452EF4405E4EEA041444EA59
:102D6000051E2CF073052B43C0F804E0C3614968CD
:102D7000C1630262B0BD0000B0B5026A002522F452
:102D800080520262026A4368D0F81CE00C68D1F8F5
:102D900008C0C4F20105A84204D14D6923F4804360
:102DA00043EA85132EF4E64545EA04254360C561F0
:102DB00022F40052496842EA0C3201640262B0BD5A
:102DC000D0F820C0036A23F001030362836923F073
:102DD000F00343EA02122CF00A03194382610162F4
:102DE00070470000036A23F0100303628369D0F880
:102DF00020C023F4704343EA02322CF0A00343EADC
:102E0000011182610162704780B5806B0021C1852C
:102E1000C184FEF775FF80BD016851E8031F026899
:102E200021F4907142E80313002BF5D1016851E8B9
:102E3000051F026821F0010142E80513002BF5D1BE
:102E4000016B01290AD100BF016851E8031F026824
:102E500021F0100142E80313002BF5D1202180F866
:102E60003E1000210163704780B50168CA6822F0F6
:102E70004002CA60202180F83D10FFF775FA80BD3E
:102E800080B582B090F83E1022291ED18268B2F53A
:102E9000805F02D10169002948D0816AB2F5805F64
:102EA00007D00AB9026922B10268526802F07F02B3
:102EB00001E0026852680A700121826A114481624D
:102EC000C18D01390A04C18501D002B080BD0168FD
:102ED000CA6822F02002CA60CA6822F48072CA60FE
:102EE0004A6922F001024A61202180F83E10016BFC
:102EF000012923D100210163016851E8031F026801
:102F000021F0100142E80313002BF5D101680A6893
:102F1000D20606D5002201920A6801924968019101
:102F20000199818DFEF7EAFE02B080BD0168826AD8
:102F300049686FF35F2111800221BEE7FFF7FEF8B9
:102F400002B080BD10B504460068D4E902C223690E
:102F5000016921F4405111430161626943EA0C01A6
:102F6000E3691143C268194349F20C639A43114360
:102F7000C1604169A26921F4407141F200431143EB
:102F800040F48062C4F201039A42416102D1FEF72B
:102F900077F901E0FEF762F9E16963681922B1F59A
:102FA000004FA0FB02011CD15A00DB0FFDF70EF908
:102FB00048F21F51C5F2EB11A0FB01235A096FF033
:102FC000630302FB0300322303EBC000A0FB0101FB
:102FD0004FF4F87000EA111000EB0210C1F3421137
:102FE0001AE09A009B0FFDF7F1F848F21F51C5F265
:102FF000EB11A0FB01235A096FF0630302FB0300EE
:10300000322303EB0010A0FB0101F02000EA511075
:1030100000EB0210C1F3431122680843906010BD19
:1030200081628285C28500212222016480F83E20CF
:10303000026980F83C1022B10168CA6842F48072CB
:10304000CA600168486940F001004861C86840F002
:1030500020020020CA60704790F83D10212923D13A
:103060008168B1F5805F01D1016931B1016A0268FF
:103070004B1C03620978516007E0016A036831F86C
:10308000022B6FF35F225A600162C18C01390A047E
:10309000C18418BF70470068C16821F08001C16019
:1030A000C16841F04001C160704700002DE9F04166
:1030B0000446006800680840884202D10020BDE84C
:1030C000F0811D460E4690465F1C04E020680068B3
:1030D0003040B042F2D0002FF8D02DB1FDF77CFF88
:1030E000A0EB0800A842F1D9206850E8030F21683E
:1030F00020F4D07041E80302002AF5D1206850E89E
:10310000050F216820F0010041E80502002AF5D1F1
:10311000202084F83D0084F83E00002084F83C0024
:103120000320BDE8F081000080B540F20030C2F21B
:103130000000FEF7E7FD80BD80B540F24430C2F2EA
:103140000000FEF7DFFD80BDFEE70000002848BF5D
:10315000704700F01F01012202FA01F14EF2001245
:103160004009CEF2000242F8201070474EF60C5093
:10317000CEF200000068C0F3022070474EF61453F0
:1031800000F00F02CEF2000309011A4400F160437F
:10319000B0F1FF3FC8BF03F56442117070470000F3
:1031A0004EF60C51CEF200010A684FF6FF031A40AA
:1031B00060F30A2242F0806040F0FD7008607047C2
:1031C00070B584B001AE054630460C4600F0ACFC4C
:1031D0009FED220A9FED242A9FED213A9FED214A7F
:1031E0000021BFEE001A4FF0010C002008E000BFE4
:1031F0000CFA01F210430131032906F104062AD02A
:1032000055F8213054F821209B1A48BF5B4296EDB7
:10321000006A05EE103AB8EEC55AB5EE406AF1EE16
:1032200010FA25EE005A0BD085EE065A35EE015AFB
:10323000B0EEC55AB4EE425AF1EE10FADBDDD7E734
:10324000B4EE435AF1EE10FAD2DBB4EE445AF1EE8A
:1032500010FAD0DDCCE704B070BD00BF00008037AD
:103260009A99993E3333733F295C0F3E80B5013004
:10327000FDF72DF880BD000080B582B000280EBF9C
:103280004FF0A33042F62000C3F63000019001AAAF
:1032900040F69E20042102F0CDF801F03FFD02B07F
:1032A00080BD00002DE9F04184B004464CF60220B8
:1032B000C0F6E3100DF10605CDF8060068200421E4
:1032C0002A4602F0B7F8A3206FF03F018DF8060000
:1032D00014F0400608BF6FF05C016FF037026FF02A
:1032E0003D0308BF6FF05C0208BF6FF05C038DF810
:1032F00007106FF03B018DF808208DF8093014F4A9
:10330000C07708BF6FF05C016FF033026FF03903D4
:1033100008BF6FF05C0208BF6FF05C038DF80A1005
:103320004AF2A3318DF80B20ADF80D108DF80F0087
:1033300040F6A7200A212A468DF80C3002F07AF8D0
:10334000202014F0030808BF6FF027008DF8060056
:1033500040F6B62001212A4602F06CF8C4F3401072
:1033600000F08CF8CFB1E00504D49020B421802285
:10337000B02303E09B20B6218B22B2238DF80720D7
:103380008DF808108DF809000DF1060240F6A22014
:1033900004218DF8063002F04DF8E0070AD1D8205C
:1033A0008DF806000DF106024FF40B60012102F0CA
:1033B00041F827E0F8208DF806000DF106024FF4E1
:1033C0000B60012102F036F80720FA2100F096FA8E
:1033D000072000F05FFA012000F07CFA642000F082
:1033E00031FB4FF4FA7000F043FB4EF20930C0F2AB
:1033F000CA20C82100F00CFA282000F01FFA0A2089
:1034000000F032FAA0076FF0260058BF6FF02700D7
:103410008DF806000DF1060240F23D70012102F028
:1034200009F8C4F3800000F04FF8C4F30010FFF770
:1034300023FF40F2A81144F00800C2F20001088006
:1034400001F06CFC002E18BF0626002F40F2AE10D3
:1034500018BF0636C2F2000014F0140F067002D036
:10346000017810310170B8F1000F02D001780431F9
:103470000170002004B0BDE8F081000080B584B088
:1034800060B15D208DF80C0049F6B400C3F20D5018
:1034900002904AF6B820C8F6B3500BE0C7208DF86A
:1034A0000C0048F6B000CCF2C35002904AF6B820A7
:1034B000CAF6AA20019001AA4FF49760092101F0F1
:1034C000B9FF04B080BD000080B582B000280EBFF7
:1034D0004FF08B304CF2C020CCF2C460019001AAB6
:1034E00040F69820042101F0A5FF01F017FC02B07E
:1034F00080BD000080B546F6E621C0F6000140F62A
:10350000F6304FF48062C82301F00CFB80BD000050
:10351000B0B584B004460DF1020001F0AFF940F2FD
:10352000A411C2F200010988BDF8020001F00302F3
:103530004B0754F822204FF00C034FEAC03C48BF21
:10354000524203EA51038806E358C1F3811048BF91
:103550005B4254F82000C90548BF40428CFB000183
:103560008CFB02E2800F8CFB035440EA810C900D2F
:103570008DF80400900B8DF8050090098DF8060079
:10358000A00D8DF80800A00B8DF80900A0098DF89A
:103590000A00880D8DF80C00880B4FEA9E73AD0F62
:1035A0008DF80D00880943EA820345EA84058DF809
:1035B0000E0001AA4FF425700C218DF807308DF80C
:1035C0000B508DF80FC001F035FF04B0B0BD000006
:1035D00010B586B004464AF6BB70CDF6DF70059094
:1035E0004FF2AA10CDF6DF7004904FF2FE20CCF21D
:1035F000AB40C82C039015D8C820B0FBF4F001AA4A
:10360000013800BA000CADF8040040F21620022187
:1036100001F010FF30B903AA40F6C1200C2101F0DF
:1036200009FF18B14FF0FF3006B010BD40F2AC10EA
:10363000C2F200000480002006B010BD70B582B058
:1036400040F2A411C2F2000109884EF2093401F0DF
:10365000030250F822200C264B0748BF5242C0F20A
:10366000CA2406EA5106C1F3811582FB0423865958
:1036700050F82550880648BF7642C8054FEA935156
:1036800048BF6D42900F8DF80410990B40EA8300FB
:103690008DF8051099098DF806108DF8070001AA1C
:1036A0004FF47470042101F0C5FE68B986FB040173
:1036B000800F40EA810000BA019001AA4FF47570B2
:1036C000042101F0B7FE18B14FF0FF3002B070BD19
:1036D00085FB0401800F40EA8100010E8DF8041083
:1036E000010C8DF80510010A8DF806108DF8070001
:1036F00001AA4FF47670042101F09CFE02B070BD67
:10370000B0B582B0054646F6CB21C0F60001C5F340
:10371000C10300F00300CC5C0A5C8DF8054046F65E
:10372000C8248DF80420C5F38112C0F60004895C1A
:10373000205C8DF806108DF80000E05CA15C8DF82F
:1037400001008DF8021001AA40F22640032101F089
:1037500071FEA0BB6A4640F22A40032101F06AFED6
:1037600068BB76208DF8060045F23660ADF804009F
:1037700044F22660ADF80000662069078DF802006B
:1037800021D4A8062DD4E8050BD59DF806009DF898
:10379000021040F001008DF8060041F001008DF8A4
:1037A000020001AA4FF48860032101F043FE30B902
:1037B0006A4640F23140032101F03CFE00B34FF075
:1037C000FF3002B0B0BD9DF804009DF8001040F03D
:1037D00001008DF8040041F001008DF80000A806FA
:1037E000D1D59DF805009DF8011040F001008DF83D
:1037F000050041F001008DF80100E805C5D4D0E7CF
:1038000040F2A410C2F200000580002002B0B0BD5A
:1038100080B582B044F6D352C1F2620250FB02F08E
:10382000821102EBD070484300BA019001AA4FF414
:10383000AE70042101F0FEFD02B080BD80B582B003
:103840004CF6CD41CCF6CC41A0FB0101880840BA32
:10385000ADF806000DF106024FF4AD70022101F043
:10386000E9FD02B080BD000080B582B04CF6CD41CC
:10387000CCF6CC41A0FB0101880840BAADF80600A7
:103880000DF106024FF4AC70022101F0D3FD02B03D
:1038900080BD000080B582B000F0010252424108B4
:1038A00002F0300261F3820261F3C30240078DF837
:1038B000072005D59DF8070040F003008DF80700AC
:1038C0000DF107024FF4A470012101F0B3FD02B025
:1038D00080BD000080B582B00428014628BF0421C5
:1038E000002818BF481E8DF807000DF1070240F2AE
:1038F0004F10012101F09EFD02B080BDB0B582B035
:103900000446B1F5C86F4FF0FF3045D80D4614F0AE
:10391000070141D00DF1030000F094FF9DF8030072
:1039200002384FEA7000072865D8C1B28B2222FA0C
:1039300001F1C9075FD000EE105A9FED311AB8EEC1
:10394000400A80EE010A2FA101EB800191ED001ADF
:1039500034A101EB800090ED002A20EE011A20EE48
:10396000020ABDEEC00A10EE100ABDEEC10A10EE4A
:10397000101A0A0A8DF804208DF80510010A01AA10
:10398000951C8DF80610E1078DF8070006D1A007F9
:1039900013D4600720D4002002B0B0BD01AA4FF4B8
:1039A000EA70022101F046FD28BB4FF4927002211B
:1039B0002A4601F03FFDF0B9E9E701AA4FF4EC70A7
:1039C000022101F037FDB0B94FF4947002212A466C
:1039D00001F030FD78B9DCE701AA4FF4EE70022166
:1039E00001F028FD38B94FF4967002212A4601F003
:1039F00021FD0028CFD04FF0FF3002B0B0BD00BF96
:103A00000000484300008046000000460000804659
:103A1000000080450000804600008046000080468F
:103A200000000045000040460000C0450000404640
:103A3000000040450000404600004046000040466F
:103A40000000C04480B582B04CF6CD41CCF6CC41EC
:103A5000A0FB0101880840BAADF806000DF106028E
:103A60004FF4EF70022101F0E5FC02B080BD0000D0
:103A700080B582B04CF6CD41CCF6CC41A0FB010123
:103A8000880840BAADF806000DF106024FF4ED705B
:103A9000022101F0CFFC02B080BD000041F20041E4
:103AA000C4F201010A685206FCD5C2B24A607047EE
:103AB00070B584B00C4605460DF10E0003A90DF15A
:103AC0000A02FEF703FDBDF90E00BDF90C6000EE21
:103AD000100AB8EEC00A85ED000A00EE106AB8EED2
:103AE000C00A84ED000A2868FCF7B6FD044630469B
:103AF0000D46FCF781FD41EC100B04A022462B463D
:103B00008DED000B01F070FD04B070BD6F6D656749
:103B10006158203A202534662C206F6D6567615905
:103B2000203A202534660A00B0B582B040F25C012C
:103B3000C2F2000149680446097801AB08460D212C
:103B40000422FEF731FD08B102B0B0BD9DF80400BB
:103B50009DF807304FF01C0E9DF805100EEAD000BE
:103B6000C3F3011210449DF806C08DF801000EEA5F
:103B7000D100C3F3810108448DF802000EEADC0095
:103B800003F0030141F27B4C9FED160A9FED161ADC
:103B900008444FF0000E0DF10101C3F6AE6C002396
:103BA0008DF8030005E000BFC2F800E00133032BED
:103BB000CAD0C85C04EB83020028F5D0C85CC2F808
:103BC00000C001380506C854F0D0C85CB0EE402AE9
:103BD0000138050622EE012AFAD182ED002A01F809
:103BE00003E0E3E77B14AE3E1D5A843F2DE9F0432A
:103BF00083B040F25C0705460120C2F200070C4684
:103C0000ADF80000D7E9001016460078897C6B46B5
:103C10000222FEF743FD10B14FF0FF378CE1C820C0
:103C2000FDF7ECF800208DF80000D7E900106B4696
:103C30000078C97B0122FEF731FD10B14FF0FF374C
:103C40007AE1D7E900106B46007849790122FEF746
:103C500025FD10B14FF0FF376EE1D7E900106B463C
:103C60000078897C0122FEF719FD10B14FF0FF3773
:103C700062E1D7E900106B460078C97D0122FEF7AA
:103C80000DFD10B14FF0FF3756E1D7E900106B463C
:103C9000007809790122FEF701FD10B14FF0FF37DE
:103CA0004AE10C208DF80000D7E900106B4600783F
:103CB00009790122FEF7F2FC10B14FF0FF373BE12A
:103CC0000F20FDF79BF8B86A3968407A7A688DF85A
:103CD0000000107889786B460122FEF7DFFC10B1F6
:103CE0004FF0FF3728E1B86A3968007A7A688DF8B2
:103CF0000000107849786B460122FEF7CFFC10B126
:103D00004FF0FF3718E1B86AD7E90012807A002E29
:103D100018BF40F0E0008DF80000107889796B46FC
:103D20000122FEF7BBFC10B14FF0FF3704E126B1D2
:103D3000B86AC07A60F01F0000E018208DF800001B
:103D4000D7E900106B460078C9790122FEF7A6FC7E
:103D500010B14FF0FF37EFE016B1C820FDF74EF875
:103D600040208DF80000D7E900106B4600780979F3
:103D70000122FEF793FC10B14FF0FF37DCE0782012
:103D80008DF80000D7E900106B46007849790122D0
:103D9000FEF784FC10B14FF0FF37CDE03220FDF785
:103DA0002DF800208DF80000D7E900106B46007850
:103DB00049790122FEF772FC10B14FF0FF37BBE0EA
:103DC000D7E900106B460078897A0222FEF7ECFBF7
:103DD00010B14FF0FF37AFE0BDF800004AF6AB215D
:103DE00000BA000CCAF6AA21A0FB0101C1F3C70961
:103DF0000020B9F1000FC5E90000A860C4E9000087
:103E0000A0603ED00026E846D7E900100C220078DA
:103E1000C97A4346FEF7C8FB002840F08B80BDF806
:103E20000000BDF80210BDF8042090FA80FCD4E92F
:103E3000003009BA92FA82FEA26803EB2C4300EB31
:103E4000214002EB2E41C4E90030BDF80600A1601C
:103E5000BDF8081090FA80FCBDF80A20D5E90030C2
:103E600009BA92FA82FEAA6803EB2C4300EB2140C8
:103E70000136C5E90030F0B202EB2E418145A96060
:103E8000C2D895E841018322C117090441EA1041D3
:103E9000000400230027FCF7CAF94A460023FCF778
:103EA000C6F92860F017000440EA16413004832266
:103EB0000023FCF7BCF94A460023FCF7B8F9686018
:103EC0004FEAE870000440EA18414FEA08408322B4
:103ED0000023FCF7ACF94A460023FCF7A8F9A860D8
:103EE000D4E90006A568C117490141EAD061400143
:103EF0004A460023FCF79BF92060F017400140EA96
:103F0000D66170014A460023FCF791F96060E8171A
:103F1000400140EAD56168014A460023FCF787F971
:103F20004FF480310028C4BF0021CFF6FF71084450
:103F3000A06001E04FF0FF37384603B0BDE8F083E2
:103F40002DE9F04F81B02DED048B86B0032800F2EF
:103F500034828A461546DFE810F004006C00A300A6
:103F60007F0105A804A9FFF7A3FD40F22800C2F2D3
:103F7000000050F82500FCF76FFB804640F2080077
:103F8000C2F2000000680E46FCF766FB9FEDB00B26
:103F900002460B4651EC100BFCF7BFFA07465046A1
:103FA0000D46FCF729FB02460B4638462946FCF72E
:103FB00042FA41EC100B01F043FB51EC100B42466E
:103FC0003346FCF738FAFCF75AFB9DED050A40F240
:103FD0009435F1EE400A9DED040AC2F20005B1EEFF
:103FE000400A8DED040A9FEDF80A08EE100A2846F3
:103FF000CDED050AFEF7EAFCDDED040AB0EE409ACD
:104000002846B0EE480AFEF7E1FCB0EE408ABDEE6D
:10401000C90A10EE100A01F0A7FABDEEC80A10EEA8
:10402000100A01F0ABFA0FF20C40514601F0DCFA35
:10403000C3E105A804A9FFF73BFD9DED050A40F289
:104040009435F1EE400A9DED040A9FEDF68AB1EE3B
:10405000400AC2F200058DED040A2846B0EE480A77
:10406000CDED050AFEF7B2FCDDED040AB0EE409A94
:104070002846B0EE480AFEF7A9FCB0EE408ABDEE35
:10408000C90A10EE100A01F06FFABDEEC80A10EE70
:10409000100A01F073FAE4A0514601F0A5FA8CE190
:1040A0000020CDE9040005A804A9B0EE418AFFF77D
:1040B000FFFC9DED050A9DED041AB1EE400A8DED61
:1040C000050AB1EE410A18EE100A8DED040AFCF75C
:1040D000C3FA9FEDC50B53EC102BFCF7ACF99FED29
:1040E000C40B53EC102BFCF718FAFCF7C8FA40F29B
:1040F0002801C2F2000151F8251006460846FCF7D7
:10410000ABFA074630460C46FCF7A6FA41EC190B11
:10411000B0EE490AF0EE690A01F0F6FA51EC100B24
:104120003A462346FCF787F9039040F20800C2F2B2
:10413000000000688B46FCF78FFA9FEDA50B024646
:1041400058EC107B0B4638464146FCF7E6F904462E
:1041500050460E46FCF750FA81468A4620463146C4
:104160004A465346FCF767F941EC100B01F068FA38
:10417000039853EC102B5946FCF75DF9FCF77FFAD6
:10418000044640F22800C2F2000050F8250008EE74
:10419000104AFCF761FAB0EE490AF0EE690A0546EA
:1041A0000E4601F04DFA51EC100B2A463346FCF74F
:1041B00042F9054640F20800C2F2000000680E46CF
:1041C000FCF74AFA02460B4638464146FCF7A5F989
:1041D0004A465346FCF72FF941EC100B01F030FA38
:1041E00053EC102B28463146FCF725F9FCF747FA2B
:1041F00009EE100A2046FCF72FFA024685A00B466E
:1042000001F0F2F940F29434DDED050AC2F2000447
:104210002046B0EE490AFEF7D9FBDDED040AB0EE08
:10422000409A2046B0EE480AFEF7D0FBB0EE408A36
:10423000BDEEC90A10EE100A01F096F9BDEEC80AEB
:1042400010EE100A01F09AF9B7E000BF00BF00BFFE
:104250006E861BF0F92119400020CDE9040005A865
:1042600004A9FFF725FC9DED050A40F244009DEDF1
:10427000041AC2F20000B1EE400A50F825008DED9C
:10428000050AB1EE410A8DED040AFCF7E5F9CDE926
:10429000021040F20800C2F200000068FCF7DCF9EE
:1042A0009FED4B0B024659EC107B0B4638464946B6
:1042B000FCF733F9044650468846FCF79DF98346DF
:1042C0000E46204641465A463346FCF7B4F841ECC8
:1042D000100B01F0B5F9DDE9023251EC100BFCF7DF
:1042E000AAF89FED3D0B53EC102BFBF7FDFFFCF7FD
:1042F000C6F9804640F24400C2F2000050F82500A2
:1043000008EE108AFCF7A8F9054640F20800C2F250
:10431000000000680C46FCF79FF902460B46384641
:104320004946FCF7FAF85A463346FCF784F841EC64
:10433000100B01F0E9F951EC100B2A462346FCF76B
:104340007AF89FED270B53EC102BFBF7CDFFFCF712
:1043500096F940F29435DDED050AC2F200050446F7
:1043600000EE100A2846FEF731FBDDED040AB0EE40
:10437000409A2846B0EE480AFEF728FB2046B0EEE9
:10438000408AFCF769F9044640460D46FCF764F99B
:1043900041EC100B18A022462B468DED000B01F0CE
:1043A00023F9BDEEC90A10EE100A01F0DDF8BDEEEA
:1043B000C80A10EE100A01F0E1F806B0BDEC048B5B
:1043C00001B0BDE8F08F00BF0000000000BF00BFDB
:1043D0006E861BF0F92119400000000000003940F2
:1043E00000000000000049406E861BF0F9210940E2
:1043F0000000000000806640744F6D656761583AA8
:104400002534662C744F6D656761593A2534660A08
:1044100000000000744F6D656761593A2534660AE3
:10442000000000000000000074696D653A25640A10
:104430000000000074696D65434E543A2025640AFB
:104440000000000070B582B040F25C02C2F20002CF
:1044500052680C4611780DF10506054608460D21F7
:1044600003223346FEF7A0F810B1072002B070BD5A
:104470009DF805009DF806109DF8072000F01F002C
:104480008DF8050001F01F008DF8060002F01F00F6
:104490009FED2C0A9FED2E2A9FED2C5A9FED2A6A44
:1044A0008DF807004FF0000CB2EE041A4FF0010E29
:1044B000B3EE093ABFEE004A0023002006E000BF39
:1044C0000EFA03F108430133032B38D055F82310BB
:1044D00054F82320891A48BF494207EE101AF15CAC
:1044E000B8EEC77A27EE007AF1B1F15CF0EE430A3C
:1044F0000139F15409060AD0F15CF0EE430A00BF1D
:1045000001390A0660EE860AFAD106F803C087EE82
:10451000207A37EE047AB0EEC77AB4EE457AF1EE3F
:1045200010FAD0DDCCE700BFB4EE417AF1EE10FA1C
:10453000C6DBB4EE427AF1EE10FAC4DDC0E702B099
:1045400070BD00BF0000803754E3853F295C0F3EFB
:104550000000D242B0B5044600F00EF80546E01C5B
:1045600000F00AF845EAC005A01D00F005F845EA8C
:10457000801080B2B0BD000090F900100029C4BFC7
:104580000020704744BF0420704790F901100029B3
:10459000C4BF0120704744BF0520704790F9020056
:1045A0000028C4BF022070474FF0060008BF072054
:1045B00070470000FCF724FDFEF754FAFEF7B0F850
:1045C000FEF78AF8FEF706F9FEF7AEF9FEF7C8F92E
:1045D000FEF76CF9FDF79AFF9FED578A40F2B8306D
:1045E000C2F20000B7EE000AF0EE480AB0EE481A38
:1045F000FEF70EFA40F29430C2F20000B0EE000A6C
:10460000F0EE480AB0EE481AFEF702FA40F27024C3
:10461000C2F2000420460021FDF7ECFA20460421F6
:10462000FDF7E8FA20460821FDF7E4FA20460C21C0
:10463000FDF7E0FA40F2981440F20030C2F20004B4
:10464000C2F2000021460122FDF75CFD40F2443039
:10465000C2F2000021460122FDF754FD37A002F00E
:1046600047F900BF00F0A6F818B11420FCF7C6FB0C
:10467000F8E740F2B820C2F20000FDF78FF840F2F0
:10468000901A40F2400B40F2DC3440F2883740F29E
:104690009C1640F28C3840F29005C2F2000AC2F239
:1046A000000BC2F20004C2F20007C2F20006C2F21E
:1046B00000080FF29409C2F200050FE096ED001A0F
:1046C000DBF8000021683A6898EC020AB8EEC11ADB
:1046D000FFF736FC2168484600F086FF9AF8000094
:1046E0000028EBD0284600F035F8CBF8000028462B
:1046F000FEF7BCFD40F2A011C2F20001086046F2D4
:104700006761C6F2666150FB01F18A1002EBD1715C
:10471000316001EB8101A0EB410040F29111386062
:104720000020C2F200018AF80000087028464FF409
:104730008071FBF7B4FDC1E7000000007072696E84
:1047400074206F6B0000000074696D653A25640A7F
:10475000000000000078303870470000F0B581B0EC
:1047600040F25C05C2F2000595F8241019B100244E
:10477000204601B0F0BDA97AC1B100F0FE07287D46
:104780003940CC1B2E7C297418BF4FF0FF343843BE
:1047900018BF012000F0FCFE002FE9D000F0BEFAA7
:1047A00000281CBF2E744FF0FF34E1E74FF0FF34B8
:1047B000DEE7000080B500F0F3F800281CBF0A20F7
:1047C00080BD782000F0D8FD00061CBF012080BD10
:1047D0007820FFF7C3FF00061CBF022080BDC82061
:1047E00000F084FD00061CBF032080BDFEF782FEA2
:1047F00000061CBF042080BD40F21C00C2F2000075
:10480000FFF7A8FEFEF77CFF00061CBF052080BD59
:1048100040F27310FEF746FD00061CBF062080BD67
:10482000C820FEF7D5FE00061CBF072080BD00F0A3
:1048300033FE012000F068FCC0B2002818BF092038
:1048400080BD000040F25C01C2F200014A7A032AF6
:1048500084BF4FF0FF30704740F20243D200C1F2F4
:10486000080323FA02F20270C97C002904BF002069
:1048700070470178490001700020704740F25C0CDD
:10488000C2F2000C9CF80930032B84BF4FF0FF30BC
:1048900070474FF48042DFE803F00A02050841F652
:1048A0009C7204E04FF4805201E04FF400629CF8E7
:1048B00013100280002904BF0020704701884908B6
:1048C0000180002070470000014640F25C00C2F207
:1048D0000000027C00200A707047000040F25C017A
:1048E000C2F200010B7A0146032B07D8FA22DFE857
:1048F00003F00C02070A4FF4FA7206E0002204E00B
:104900004FF47A7201E04FF4FA6200200A80704797
:1049100040F25C01C2F2000191F90810032984BF42
:104920004FF0FF30704703A252F8211001600020C1
:10493000704700BF0000034300008342333303424B
:104940003333834140F25C01C2F20001C97A4B1E4D
:10495000052B014607D8BC22DFE803F00E03070948
:104960000B0D622208E0002206E02A2204E0142255
:1049700002E00A2200E0052200200A8070470000C1
:1049800040F25C01C2F2000191F82420002A1CBF11
:104990004FF0FF307047C989018000207047000048
:1049A000B0B582B040F25C058020C2F200058DF8FF
:1049B0000200D5E900100DF102030078897C012284
:1049C000FDF76CFE10B14FF0FF3497E06420FCF768
:1049D00015FA00208DF80200D5E900100DF1020350
:1049E0000078897C0122FDF759FE10B14FF0FF34A9
:1049F00084E0D5E900100DF102030078897D0622DC
:104A0000FDF7D2FD10B14FF0FF3477E09DF80710AD
:104A10009DF803009DF80520890062F3410100F034
:104A20000100084410F0070003D0022822D1002022
:104A300021E0D5E900100DF102030078C9780122C8
:104A4000FDF7B2FD10B14FF0FF3457E09DF80200C2
:104A500000F00F0004280AD00028E8D147F20370C4
:104A6000C0F6000001F044FF4FF0FF3446E025A0FF
:104A700001F03EFF0120E8744FF6FF70E881FF204F
:104A80002874A8740120287385F8220000204FF0B4
:104A9000FF34C5E90500E8612884C5F8230085F8DE
:104AA00027004FF4FA60AC6000F074FB30BB0220CA
:104AB00000F078FA10B14FF0FF341FE02A2000F028
:104AC000DDFB10B14FF0FF3418E0322000F00EFC97
:104AD00010B14FF0FF3411E00020FFF73FFE10B19E
:104AE0004FF0FF340AE0002000F098FA10B14FF0C8
:104AF000FF3403E00020002400F03EFC204602B01A
:104B0000B0BD00BF48616C662073656E73697469DF
:104B100076697479207061727420666F756E642E88
:104B2000000000002DE9F04F87B0074600294FF044
:104B3000FF3052D08B4640F25C01C2F2000191F886
:104B40002510002949D1CDE900324FB300200DF1E5
:104B50000C0A4FF0000800BFA7EB0009B9F1100FD5
:104B6000A8BF4FF010090BEB00041FFA89F51FFADC
:104B700088F630462946224600F05CFC10BB3046E1
:104B80002946524600F098F8E0B9204651462A4698
:104B9000FBF790FB20BBC8441FFA88F0B842DBD378
:104BA000019840F25C0440BAC2F20004ADF80A0079
:104BB000D4E900100DF10A030078897E0222FDF786
:104BC0006DFD20B14FF0FF3007B0BDE8F08F012040
:104BD00084F825000098E084002007B0BDE8F08F3D
:104BE0006FF0010007B0BDE8F08F0000B0B582B0F3
:104BF000282802D94FF0FF344EE0044648B1012086
:104C000000F008FB2020012C8DF806001CD10020AC
:104C10001DE00020002400F0FDFA40F25C054FF496
:104C2000E060C2F20005ADF80600D5E900100DF114
:104C300006030078897C0222FDF730FD00280CBFB6
:104C40002C754FF0FF3427E0052C28D801208DF873
:104C50000700052000F012FB9DF8070040F25C05FC
:104C600080010730C2F200058DF80700D5E9001079
:104C70000DF106030078897C0222FDF70FFD10B1CB
:104C80004FF0FF3408E00820A872012000242875A6
:104C900000202C73FFF762FD204602B0B0BD142C3B
:104CA00004D802208DF807000A20D3E703208DF8EE
:104CB00007001420CEE7000070B582B00D46014613
:104CC0004FF0FF3042B340F25C06C2F200061446D9
:104CD000B27A0AB370684ABA438955FA81F19942A7
:104CE000ADF8062008D831680078097E0DF106037A
:104CF0000222FDF7D3FC18B14FF0FF3002B070BDB7
:104D0000D6E90010EAB20078497D2346FDF74CFC55
:104D1000002818BF4FF0FF3002B070BD10B582B050
:104D200040F25C04C2F20004A07A00B300208DF8C7
:104D30000700D4E900100DF107030078C97B0122B8
:104D4000FDF7ACFC98B9D4E900100DF10703007829
:104D500049790122FDF7A2FC48B9D4E900100DF110
:104D60000703007809790122FDF798FC18B14FF08C
:104D7000FF3002B010BD94F82400002845D00C206C
:104D80008DF80700D4E900100DF1070300780979C8
:104D90000122FDF783FC0028E9D13220FCF72EF830
:104DA000A07A0DF10703C0076FF01F0008BF6FF076
:104DB0003F008DF80700D4E900100122007809793E
:104DC000FDF76CFC0028D2D1607C0DF107030028B0
:104DD00018BF012040008DF80700D4E9001001221F
:104DE0000078C97BFDF75AFC0028C0D100208DF85F
:104DF0000700D4E900100DF107030078497901227A
:104E0000FDF74CFC0028B2D145E004208DF80700E6
:104E1000D4E900100DF10703007809790122FDF7AC
:104E20003DFC0028A3D1A07AA17CC0074FF0600010
:104E300008BF4020002918BF40208DF80700D4E9A2
:104E400000100DF10703007809790122FDF726FC17
:104E500000288CD13220FBF7D1FF607C0DF10703D5
:104E6000002818BF01208DF80700D4E900100122A6
:104E70000078C97BFDF712FC00287FF478AFD4E9F5
:104E8000001004F11003007849790122FDF706FCB7
:104E900000287FF46CAF002002B010BD2DE9F04F68
:104EA00089B040F25C0AC2F2000A9AF824900E46D9
:104EB000B9F1000F054602D0002000F025F902A844
:104EC000FFF70CFD0DF10B00FFF7BCFC01A8FFF78D
:104ED00039FD0DF10600FFF753FD9AF80A800DF138
:104EE0000A00FFF7F1FC0024284631460022FEF7B5
:104EF0007DFE18B10134012CF6D00224022C0FD013
:104F000000270DF1180B03AC584621460122FEF78D
:104F10006DFE18B10137012FF6D00227022F01D103
:104F200000250FE003A93046FEF74AF9044606A91A
:104F30002846FFF787FAC0B2B0FA80F0450920068C
:104F400008BF02354FF6FF70AAF80E00FF208AF85E
:104F500010004FF0FF30CAF80800BDF8080001212A
:104F60008AF80C1000F016F99DF80B0000F01AF802
:104F7000BDF8040000F082F9BDF8060000F0B6F9B3
:104F8000404600F0F9F99DF80A00FFF7E7FBB9F198
:104F9000000F02D0012000F0B7F8284609B0BDE8A4
:104FA000F08F000010B582B040F25C04C2F2000441
:104FB000A17A41B302384FEA700107294FF0FF3060
:104FC0002AD8DFE801F0040629082929290A002047
:104FD00004E0082002E0102000E018208DF807000F
:104FE000607A9DF80710B0EBD10F02D1002002B01B
:104FF00010BDD4E900100DF107030078C979012232
:10500000FDF74CFB18B14FF0FF3002B010BD9DF81A
:105010000700C0086072002002B010BDB0B582B0B9
:1050200040F25C05C2F20005A97C814202D1002059
:1050300002B0B0BD0446D5E900100DF107030078B9
:1050400009790122FDF7B0FA84B3002844D19DF814
:1050500007000DF1070300F0DF008DF80700D5E928
:105060000010012200780979FDF718FBA0BB03208E
:10507000FBF7C4FE95F8221095F823206FF07D0011
:10508000002908BF02208DF807001AB140F0300057
:105090008DF80700D5E900100DF107030078097DB0
:1050A0000122FDF7FBFAB8B9AC74C0E7A0B99DF8CE
:1050B0000700A97A00F0DF0001F0010140EA411089
:1050C0008DF80700D5E900100DF107030078097984
:1050D0000122FDF7E3FA18B14FF0FF3002B0B0BD86
:1050E0000320FBF78BFE95F8220095F8231002466B
:1050F00000281CBF01226FF07F00D20100298DF82B
:105100000720C3D1C6E7000070B582B040F25C054D
:10511000C2F2000595F82410814201D1002436E046
:10512000F8B195F8250080B30020002400F030FA93
:105130000020FFF773FFE88C00F0D8F868688DF85E
:10514000074000780DF10703232101220126FDF716
:10515000A5FA012085F8246000F01AFAFFF7DEFDB9
:1051600015E00020002400F013FA287C69688DF80F
:10517000070008780DF1070323210122FDF78EFABD
:1051800085F82440FFF7CAFD01E04FF0FF342046C8
:1051900002B070BD10B582B040F25C04C2F20004EF
:1051A000A17A61B30146B0F57A7F4FF0FF3006DA9D
:1051B000FA290CD0B1F5FA7F2AD108200AE0B1F51E
:1051C0007A7F06D0B1F5FA6F22D1182002E00020D4
:1051D00000E010208DF80700207A9DF80710B0EB52
:1051E000D10F02D1002002B010BDD4E900100DF1A2
:1051F0000703007889790122FDF750FA18B14FF0C2
:10520000FF3002B010BD9DF80700C00820720020DA
:1052100002B010BDB0B582B040F25C05C2F200052C
:1052200095F82310814225D0A97C0446002818BF98
:10523000302000298DF807001CBF40F002008DF8D7
:10524000070095F8220028B19DF8070040F0800083
:105250008DF80700D5E900100DF107030078097DEE
:105260000122FDF71BFA18B14FF0FF3002B0B0BDBC
:1052700085F82340002002B0B0BD000010B582B018
:1052800040F25C04C2F20004A17A21B3BC2801D32D
:1052900001200FE0622801D302200BE02A2801D36D
:1052A000032007E0142801D3042003E00A2834BFB8
:1052B000062005208DF80700E07A9DF80710884247
:1052C00010D0D4E900100DF107030078897801228D
:1052D000FDF7E4F918B14FF0FF3002B010BD9DF8B2
:1052E0000700E072002002B010BD000070B582B06F
:1052F00040F25C05C2F20005A97A04464FF0FF3087
:10530000B9B395F82410A1BB287D60B1601E80B2AE
:10531000272805D8E0B2FFF769FC002002B070BD75
:105320000020FFF763FC4FF47A76B4F57A7F28BF4C
:105330003446042C98BF0424B6FBF4F00DF10703A7
:1053400001388DF80700D5E900100122007849786E
:10535000FDF7A4F918B14FF0FF3002B070BD9DF811
:1053600007000130B6FBF0F0E8814008FFF786FF48
:10537000002002B070BD0000B0B582B0044610F04D
:10538000700F01D0012003E0002C0CBF4020002052
:1053900040F25C05C2F200058DF80700D5E9001067
:1053A0000DF107030078897C0122FDF777F920B120
:1053B0000020A8724FF0FF3439E09DF80700A106E5
:1053C00000F0BF0028734FF0040020EA141058BF0B
:1053D0000230E1068DF8070005D49DF8070040F083
:1053E00001008DF80700200705D49DF8070040F064
:1053F00038008DF80700D5E900100DF1070300789B
:10540000C97C0122FDF74AF920B10020A8724FF0B3
:10541000FF340CE044F00800082802D00020FFF719
:10542000F9FEAC72002432202C75FBF7E7FC204615
:1054300002B0B0BD70B582B00D4601464FF0FF30EE
:1054400042B340F25C06C2F200061446B27A0AB3D6
:1054500070684ABA438955FA81F19942ADF806203D
:1054600008D831680078097E0DF106030222FDF7A5
:1054700015F918B14FF0FF3002B070BDD6E9001039
:10548000EAB20078497D2346FDF708F9002818BFE5
:105490004FF0FF3002B070BD10B588B005A802A96A
:1054A000FFF7FCFC07283BD101A801ACFFF730FA5D
:1054B00094ED040A94ED051A94ED062A94ED003A51
:1054C000B8EEC00AB8EEC11AB8EEC22A23EE000A3E
:1054D00023EE011A23EE022ABDEEC00ABDEEC11A68
:1054E000BDEEC22A05A884ED040A84ED051A84EDF8
:1054F000062AFEF7A3F80DF10200FFF7BFF902AB91
:10550000BDF802000ECB4143029102FB00F158436B
:10551000049002A80391FDF7FBFF002008B010BD26
:10552000012008B010BD00004FF44872B0F5487F6C
:10553000A8BF1046B1F5487FB8BF0A463821C4F26B
:10554000000108608A6070474FF44872B0F5487FE8
:10555000A8BF1046B1F5487FB8BF0A463421C4F24F
:10556000000108608A60704780B50128AEBF002145
:1055700041420020FFF7D8FF80BD000080B5012820
:10558000AEBF002141420020FFF7DEFF80BD0000DA
:1055900010B582B040F25C04C2F2000494F824100A
:1055A00089B1002818BF012040008DF80700D4E918
:1055B00000100DF107030078C97B0122FDF76EF89A
:1055C00060B102B010BDA17A0029FAD010B1617C9F
:1055D0000029F6D1002818BF0120E6E79DF8070052
:1055E000607402B010BD00000FB4054B10B503A9E4
:1055F000044A029800F0D8FD10BC5DF814FB0000CE
:105600009D3A00089401002003B4019841000098DD
:1056100050EAC12018BF04204A0D18BF40F0010015
:1056200040F2FF72B2EB515F08BF40F00200012868
:1056300008BF052002B070470048704700000020F6
:1056400010B52F499FED2C1B2DED020B84B0059852
:1056500020F000408842D8BF9DED040B2DDD294984
:10566000884209D1049840B94FF0010000F0D4FC01
:1056700000F0A2FC06B010BD05DB9DED040B00F0B0
:105680008FFC06B010BD68469DED040B00F0A0F83D
:1056900010F0030004BF9DED021B9DED000B0CD02C
:1056A00001280ED09DED021B9DED000B022817D0A6
:1056B000012000F0DDFB06B010BD00F0A5FA06B039
:1056C00010BD9DED021B9DED000B012000F0D0FBF5
:1056D00051EC100B81F0004106B041EC100B10BDF5
:1056E00000F092FA51EC100B81F0004106B041EC51
:1056F000100B10BD000000000000000000000000C2
:10570000FB21E93F0000F07F10B52F499FED2C1BD6
:105710002DED020B84B0059820F000408842DCBFDC
:1057200000209DED040B32DD2849884209D1049800
:1057300040B94FF0010000F06FFC00F03DFC06B0F6
:1057400010BD05DB9DED040B00F02AFC06B010BD7A
:1057500068469DED040B00F03BF810F0030011D0FB
:10576000012818D09DED021B9DED000B02281AD0D8
:1057700000F04AFA51EC100B81F0004106B041EC08
:10578000100B10BD9DED021B9DED000B012000F0E4
:105790006FFB06B010BD9DED021B9DED000B00F0F0
:1057A00033FA06B010BD012000F062FB51EC100B83
:1057B00081F0004106B041EC100B10BD000000006C
:1057C0000000000000000000FB21E93F0000F07F26
:1057D0002DE9F14F04462DED020B2DED088B8AB01B
:1057E0009FEDE70B80ED020B139EE74826F0004586
:1057F00085420ADC9DED120B002084ED000B0AB0FF
:10580000BDEC088B03B0BDE8F08FE0489FEDE0AB46
:105810009FEDE1BBA84247DDE14F9FEDE39B9FED8C
:10582000E48B9DED120B53EC1A2B51EC100B002E58
:105830001CDDFAF7FAFD41EC100BBD4208D053EC29
:105840001B2B51EC100BFAF7F0FDC4E900010BE043
:1058500053EC192B51EC100BFAF7E7FD53EC182B16
:10586000FAF7E3FDC4E900010120C8E7FAF73CFDBF
:1058700041EC100BBD4208D053EC1B2B51EC100B2C
:10588000FAF732FDC4E900010BE053EC192B51EC9F
:10589000100BFAF729FD53EC182BFAF725FDC4E994
:1058A00000014FF0FF30AAE7C348A84279DB9DED25
:1058B000120B51EC100B01F00EF841EC180B9FEDA0
:1058C000C00B53EC102BFAF7B6FD9FEDBF1B53EC4A
:1058D000112BFAF709FDFAF7A0FE0746FAF78CFE3E
:1058E00041EC190B53EC1A2BFAF7A5FD53EC182BCE
:1058F000FAF79EFD41EC180B53EC1B2B51EC190BE6
:10590000FAF799FDDFF8C8A241EC100B4FEA1558E1
:105910000125FA4453EC102B51EC180BFAF785FDD6
:10592000032DC4E900013DD0C1F30A5005EB451138
:10593000A8EB00001139814234DA0AEB051BB0EE06
:1059400048AA9BED000BF0EE68AA53EC102B51EC2B
:10595000190BFAF770FD41EC1B0B51EC1A0B53ECD1
:105960001B2BFAF762FD41EC180B51EC1A0B53ECB0
:10597000182BFAF75AFD53EC1B2BFAF756FD9BED4B
:10598000020B41EC1A0B53EC102B51EC190BFAF7EC
:1059900052FD53EC1A2BFAF748FD41EC100B6D1C2D
:1059A000B8E70EE0002EA8BF3846BFF628AF94ED4A
:1059B000000B51EC100B81F00041C4E9000178426A
:1059C0001DE7C6F3130040F4801EC6F30A50A0F290
:1059D000F530471100F01F05C5F12000DDF848B093
:1059E00008900020069007900520EC467949002D8C
:1059F00007EB0002794408BF51F8221009D051F892
:105A0000223001EB8201AB404A68089922FA01F189
:105A10001943A1FB0E26A1FB0B131A449A4234BF73
:105A20000123002303EB06080CEB8003D3E901A656
:105A30000E448E4234BF0121002192448A4411B1A8
:105A4000924502D903E0924501D2012100E00021F4
:105A5000C3E901A641444CF82010011EA0F1010049
:105A6000C4DC029800F10050850F0298DDE903675D
:105A70008000DDF81480FAF7BFFD41EC1A0B3046C8
:105A8000FAF7C1FF9FED541B53EC112BFAF7D3FC2F
:105A900041EC1B0B3846FAF7B6FF9FED511B53EC58
:105AA000112BFAF7C8FC41EC180B4046FAF7ABFF94
:105AB0009FED4D1B53EC112BFAF7BDFC41EC190B7C
:105AC00051EC180B53EC192BFAF70EFC53EC1B2B73
:105AD000FAF70AFC53EC1A2BFAF706FCCDE9080199
